:020000040800F2
:1000000000000320FDA10108710A0008770A00081A
:100010007D0A0008830A0008890A00080000000021
:1000200000000000000000000000000001D00008F7
:100030008F0A00080000000051D20008B9D2000861
:100040004DA201084DA201084DA201084DA20108D0
:100050004DA201084DA201084DA201084DA20108C0
:100060004DA201084DA201084DA201084DA20108B0
:100070004DA201084DA201084DA201084DA20108A0
:100080004DA201084DA201084DA201084DA2010890
:100090004DA201084DA201084DA201084DA2010880
:1000A0004DA201084DA201084DA201084DA2010870
:1000B0004DA201084DA201084DA201084DA2010860
:1000C0004DA201084DA201084DA201084DA2010850
:1000D0004DA201084DA201084DA201084DA2010840
:1000E0004DA201084DA201084DA201084DA2010830
:1000F0004DA201084DA201084DA201084DA2010820
:100100004DA201084DA201084DA201084DA201080F
:100110004DA201084DA201089D0A00084DA2010848
:100120004DA201084DA201084DA201084DA20108EF
:100130004DA20108B10A00084DA201084DA2010814
:100140004DA201084DA201084DA20108C50A0008F0
:100150004DA201084DA201084DA201084DA20108BF
:100160004DA201084DA201084DA201084DA20108AF
:100170004DA201084DA201084DA201080000000097
:100180004DA201084DA201084DA201084DA201088F
:100190004DA201084DA201084DA201084DA201087F
:0C01A0004DA201084DA201084DA201086B
:1001B00010B5054C237833B9044B13B10448AFF3A1
:1001C00000800123237010BDA40000200000000067
:1001D000E0B3010808B5034B1BB103490348AFF373
:1001E000008008BD00000000A8000020E0B3010866
:1001F00001F0FF01102A2BDB10F0070F08D010F8D8
:10020000013B013A8B422DD010F0070F42B3F6D1DB
:10021000F0B441EA012141EA014122F007047FF0F4
:1002200000070023F0E80256083C85EA010586EA4B
:10023000010685FA47F5A3FA87F586FA47F6A5FA87
:1002400087F68EB9EED1F0BC01F0FF0102F0070293
:1002500032B110F8013B013A83EA010313B1F8D13E
:100260000020704701387047002D06BF354603381F
:10027000073815F0010F07D1013015F4807F02BF58
:10028000013015F4C03F0130F0BC0138704700BFA9
:1002900053B94AB9002908BF00281CBF4FF0FF31ED
:1002A0004FF0FF3000F06EB9ADF1080C6DE904CEEF
:1002B00000F006F8DDF804E0DDE9022304B0704741
:1002C0002DE9F047089D04468C46002B40F08380C2
:1002D0008A42174647D9B2FA82F242B1C2F12000EF
:1002E00024FA00F09140974040EA010C94404FEA14
:1002F0001748230CBCFBF8F61FFA87FE08FB16C153
:1003000043EA014306FB0EF1994209D9FB1806F1B5
:10031000FF3080F01981994240F21681023E3B4441
:100320005B1AA4B2B3FBF8F008FB103344EA0344B1
:1003300000FB0EFEA64509D93C1900F1FF3380F001
:100340000581A64540F2028102383C4440EA06405D
:10035000A4EB0E0400261DB1D4400023C5E90043E0
:100360003146BDE8F08702B9FFDEB2FA82F2002A18
:1003700050D1CB1B4FEA174E1FFA87F80126B3FB6B
:10038000FEFC210C0EFB1C3341EA034108FB0CF37D
:100390008B4207D979180CF1FF3002D28B4200F260
:1003A000E9808446C91AA3B2B1FBFEF00EFB10111E
:1003B00043EA014408FB00F8A04507D93C1900F1C5
:1003C000FF3302D2A04500F2D9801846A4EB0804FE
:1003D00040EA0C40BFE78B4209D9002D00F0B18004
:1003E0000026C5E9000130463146BDE8F087B3FA82
:1003F00083F6002E4AD18B4202D3824200F2B880AB
:10040000841A61EB030101208C46002DA8D0C5E9B8
:10041000004CA5E7C2F1200320FA03F6974001FA49
:1004200002F04FEA174ED9403043030CB1FBFEF601
:100430001FFA87F80EFB161143EA014306FB08F189
:10044000994204FA02F409D9FB1806F1FF3C80F046
:100450008D80994240F28A80023E3B445B1A81B211
:10046000B3FBFEF00EFB103341EA034100FB08F33F
:100470008B4207D9791800F1FF3C73D28B4271D9B6
:1004800002383944CB1A40EA064678E7C6F1200C18
:1004900003FA06F422FA0CF31C4320FA0CF701FAD3
:1004A00006F34FEA144E21FA0CF11F433B0CB1FB4B
:1004B000FEF91FFA84F80EFB191143EA014109FB0A
:1004C00008FA8A4502FA06F200FA06F308D961181A
:1004D00009F1FF3048D28A4546D9A9F102092144E1
:1004E000A1EB0A01BFB2B1FBFEF00EFB101147EA0F
:1004F000014700FB08F8B84507D9E71900F1FF31BB
:100500002ED2B8452CD90238274440EA0940A7EB3F
:100510000807A0FB02894F45C64649461AD317D0A3
:100520005DB1B3EB0E0267EB010707FA0CFCF2407A
:100530004CEA0202F740C5E9002700263146BDE833
:10054000F0872E4628460BE70646E9E61846FDE604
:100550004345E5D2B8EB020E69EB04010138DFE751
:100560000846D2E760468DE78146B9E7664675E7FB
:1005700030464AE7ACF1020C394413E702383C44F8
:1005800024E700BF704700BF80B485B000AFF860BB
:10059000B9607A60FB68074A1A60BB68064A1A604D
:1005A0007B6880221A6000BF1437BD465DF8047B6B
:1005B000704700BFC000002014010020B0B588B013
:1005C00000AF00F05BFB00F01FF800F0B1F800F0A6
:1005D00085F805F099FE0A4B3C1D1D460FCD0FC452
:1005E00095E8070084E807003B1D002118460AF043
:1005F00015FA0346034A13600AF0F9F9FEE700BF53
:1006000004B401082486002080B594B000AF07F13F
:10061000200330220021184619F06AFE07F10C036E
:1006200000221A605A609A60DA601A610023BB6087
:10063000284B1B6C274A43F080531364254B1B6CDB
:1006400003F08053BB60BB6800237B60224B1B68B8
:10065000214A43F4404313601F4B1B6803F440439B
:100660007B607B6801233B624FF4A0237B62022303
:10067000BB634FF48003FB6304233B64A8237B64C8
:100680000223BB640723FB6407F12003184603F031
:1006900019FD0346002B01D000F016F90F23FB6073
:1006A00002233B6100237B614FF4A053BB614FF4F5
:1006B0008053FB6107F10C030521184603F07AFF14
:1006C0000346002B01D000F0FFF800BF5037BD46B5
:1006D00080BD00BF003802400070004080B500AF10
:1006E000114B124A1A60104B4FF4E1325A600E4B14
:1006F00000229A600C4B0022DA600B4B00221A6138
:10070000094B0C225A61084B00229A61064B0022C9
:10071000DA61054804F02AFC0346002B01D000F002
:10072000D3F800BF80BD00BF2886002000480040ED
:1007300080B58CB000AF07F11C0300221A605A602C
:100740009A60DA601A610023BB614C4B1B6B4B4A09
:1007500043F004031363494B1B6B03F00403BB61B9
:10076000BB6900237B61454B1B6B444A43F080030C
:100770001363424B1B6B03F080037B617B69002397
:100780003B613E4B1B6B3D4A43F0010313633B4B04
:100790001B6B03F001033B613B690023FB60374B9C
:1007A0001B6B364A43F002031363344B1B6B03F09D
:1007B0000203FB60FB680023BB60304B1B6B2F4ABE
:1007C00043F0080313632D4B1B6B03F00803BB605E
:1007D000BB6800237B60294B1B6B284A43F0400316
:1007E0001363264B1B6B03F040037B607B68002286
:1007F00044F28101224801F0DBFE00224021214821
:1008000001F0D6FE4FF40053FB614FF488133B62B6
:1008100000237B6207F11C0319461B4801F01CFDF5
:1008200044F28103FB6101233B6200237B620023CE
:10083000BB6207F11C031946114801F00DFD40236E
:10084000FB6101233B6200237B620023BB6207F153
:100850001C0319460B4801F0FFFC8023FB610023B9
:100860003B6200237B6207F11C031946054801F037
:10087000F3FC00BF3037BD4680BD00BF00380240EA
:1008800000040240001802400008024080B582B017
:1008900000AF786005F080FE19F0A4F901200AF09D
:1008A00009F9FBE780B582B000AF78607B681B6810
:1008B000044A934201D100F003FA00BF0837BD4655
:1008C00080BD00BF0010004080B400AF72B600BF12
:1008D000FEE7000080B582B000AF00237B60124BC2
:1008E0005B6C114A43F4804353640F4B5B6C03F41D
:1008F00080437B607B6800233B600B4B1B6C0A4A88
:1009000043F080531364084B1B6C03F080533B602F
:100910003B6800220F216FF0010000F0CDFA00BF0C
:100920000837BD4680BD00BF0038024080B58AB0A0
:1009300000AF786007F1140300221A605A609A60D1
:10094000DA601A617B681B68194A93422CD1002334
:100950003B61184B1B6C174A43F480231364154BFF
:100960001B6C03F480233B613B690023FB60114B4C
:100970001B6B104A43F0080313630E4B1B6B03F011
:100980000803FB60FB684FF440737B610223BB618B
:100990000023FB6103233B6207237B6207F11403FF
:1009A0001946054801F058FC00BF2837BD4680BDF8
:1009B0000048004000380240000C024080B58CB076
:1009C00000AF78600023FB620023BB6200227968DD
:1009D000362000F071FA362000F08AFA0023FB601E
:1009E0001F4B1B6C1E4A43F0100313641C4B1B6C03
:1009F00003F01003FB60FB6807F1100207F114031A
:100A00001146184603F0D2FF03F0A8FF03465B002F
:100A1000FB62FB6A134AA2FB03239B0C013BBB62F4
:100A2000114B124A1A60104B40F2E732DA600E4A5C
:100A3000BB6A53600C4B00221A610B4B00229A6078
:100A4000094803F0E5FF0346002B04D1064804F0F3
:100A500039F8034600E0012318463037BD4680BD13
:100A60000038024083DE1B436C86002000100040EB
:100A700080B400AFFEE780B400AFFEE780B400AF03
:100A8000FEE780B400AFFEE780B400AFFEE780B4BD
:100A900000AF00BFBD465DF8047B704780B500AF76
:100AA000024804F07FF800BF80BD00BF6C860020C4
:100AB00080B500AF024800F00DFE00BF80BD00BF52
:100AC00044A4002080B500AF024801F0F5FF00BF4C
:100AD00080BD00BFC4F7002080B400AF01231846DA
:100AE000BD465DF8047B704780B483B000AF78608A
:100AF0003960054B16221A604FF0FF3318460C3749
:100B0000BD465DF8047B7047D8F3002080B582B005
:100B100000AF78604FF0FF317868FFF7E5FFFEE740
:100B200080B586B000AFF860B9607A6000237B6161
:100B30000AE0AFF300800146BB685A1CBA60CAB233
:100B40001A707B6901337B617A697B689A42F0DBBA
:100B50007B6818461837BD4680BD80B586B000AFAB
:100B6000F860B9607A6000237B6109E0BB685A1CB9
:100B7000BA601B781846AFF300807B6901337B6154
:100B80007A697B689A42F1DB7B6818461837BD4664
:100B900080BD000080B485B000AF7860114B1B6849
:100BA000002B02D10F4B104A1A600E4B1B68FB60E2
:100BB0000C4B1A687B6813446A46934205D90B4B69
:100BC0000C221A604FF0FF3306E0064B1A687B6870
:100BD0001344044A1360FB6818461437BD465DF899
:100BE000047B704714030020D4FA0020D8F30020BF
:100BF00080B483B000AF78604FF0FF3318460C37F5
:100C0000BD465DF8047B704780B483B000AF786068
:100C100039603B684FF400525A60002318460C3785
:100C2000BD465DF8047B704780B483B000AF786048
:100C3000012318460C37BD465DF8047B704780B42D
:100C400085B000AFF860B9607A60002318461437A9
:100C5000BD465DF8047B704780B400AF064BD3F807
:100C60008830054A43F47003C2F8883000BFBD469F
:100C70005DF8047B704700BF00ED00E080B500AF79
:100C80000E4B1B680D4A43F4007313600B4B1B683B
:100C90000A4A43F480631360084B1B68074A43F415
:100CA00080731360032000F0FCF80F20FFF786FE2E
:100CB000FFF710FE0023184680BD00BF003C024035
:100CC00080B400AF064B1B781A46064B1B681344D2
:100CD000044A136000BFBD465DF8047B704700BF47
:100CE00008000020B486002080B400AF034B1B68CE
:100CF0001846BD465DF8047B704700BFB4860020EF
:100D000080B584B000AF7860FFF7EEFFB8607B6815
:100D1000FB60FB68B3F1FF3F05D00A4B1B781A4616
:100D2000FB681344FB6000BFFFF7DEFF0246BB68B1
:100D3000D31AFA689A42F7D800BF00BF1037BD46F1
:100D400080BD00BF0800002080B485B000AF78608F
:100D50007B6803F00703FB600C4BDB68BB60BA6881
:100D60004FF6FF031340BB60FB681A02BB681343D6
:100D700043F0BF6343F40033BB60044ABB68D360F5
:100D800000BF1437BD465DF8047B704700ED00E0FE
:100D900080B400AF044BDB681B0A03F0070318465E
:100DA000BD465DF8047B704700ED00E080B483B081
:100DB00000AF0346FB7197F90730002B0BDBFB7983
:100DC00003F01F02074997F907305B09012000FA79
:100DD00002F241F8232000BF0C37BD465DF8047BCA
:100DE000704700BF00E100E080B483B000AF03466D
:100DF0003960FB7197F90730002B0ADB3B68DAB2E8
:100E00000C4997F907301201D2B20B4483F8002342
:100E10000AE03B68DAB20849FB7903F00F03043BB0
:100E20001201D2B20B441A7600BF0C37BD465DF8F2
:100E3000047B704700E100E000ED00E080B489B081
:100E400000AFF860B9607A60FB6803F00703FB61EC
:100E5000FB69C3F10703042B28BF0423BB61FB69B3
:100E60000433062B02D9FB69033B00E000237B61BE
:100E70004FF0FF32BB6902FA03F3DA43BB681A4052
:100E80007B699A404FF0FF317B6901FA03F3D94344
:100E90007B680B40134318462437BD465DF8047B3E
:100EA000704780B582B000AF78607868FFF74CFF7C
:100EB00000BF0837BD4680BD80B586B000AF034691
:100EC000B9607A60FB7300237B61FFF761FF786193
:100ED0007A68B9687869FFF7B1FF024697F90F3071
:100EE00011461846FFF780FF00BF1837BD4680BD8A
:100EF00080B582B000AF0346FB7197F90730184602
:100F0000FFF754FF00BF0837BD4680BD80B588B0ED
:100F100000AF78600023FB610023FB60AA4BBB613C
:100F200000237B6100233B617B68002B01D10123FF
:100F300083E17B6893F84430DBB2002B06D17B68F9
:100F4000002283F84520786805F096FB0023BB60FB
:100F50009E4B5B6C9D4A43F4804353649B4B5B6C9C
:100F600003F48043BB60BB68994B5B68984A23F4E9
:100F700000035360964B5A687B681B6A944913437D
:100F80004B607B681B6803F580531A687B681B689D
:100F900042F0010203F580531A60FFF7A5FE786165
:100FA00011E0FFF7A1FE02467B69D31AB3F5FA7F81
:100FB00009D97B68032283F844207B68002283F8E8
:100FC0004520032339E17B681B6803F580531B68C8
:100FD00003F00103002BE4D17B681B681B69FB61F4
:100FE000FB6923F01C03FB6103F0ACFCB861BB6937
:100FF000784A934208D9BB69774A934204D8FB697F
:1010000043F00803FB6127E0BB69734A934208D9A8
:10101000BB696D4A934204D2FB6943F00C03FB6148
:101020001AE0BB69684A934203D3BB696B4A934297
:1010300011D9BB69694A934208D9BB69684A93428E
:1010400004D8FB6943F00403FB6105E0FB6943F04E
:101050001003FB6100E000BF7B681B68FA691A613E
:101060004FF400420021786800F017FC0346002B83
:101070000BD001233B613969786800F0CDFD7B68B6
:10108000012283F844200123D7E0FF20FFF738FE38
:101090007B685B68002B00F0A580FFF725FE786178
:1010A00007F10C031A460121786800F08EFBFFF768
:1010B0001BFE02467B69D31A41F2883293420FD954
:1010C00001233B613969786800F0A6FD7B68012245
:1010D00083F844207B68002283F845200323ACE09A
:1010E000FB6803F00403002BDAD04FF48052002198
:1010F000786800F0D2FB0346002B0BD001233B6144
:101100003969786800F088FD7B68012283F8442003
:10111000012392E0FFF7E8FD786107F10C031A461E
:101120000121786800F051FBFFF7DEFD02467B6984
:10113000D31A41F2883293420FD901233B613969B6
:10114000786800F069FD7B68012283F844207B68A1
:10115000002283F8452003236FE0FB6803F020039F
:10116000002BDAD007F10C031A461021786800F042
:101170002CFB0346002B0BD001233B6139697868B7
:1011800000F04AFD7B68012283F84420012354E0EB
:10119000FB6803F00403002B04D07B684FF400626B
:1011A000DA6002E07B680022DA60FB6803F0020389
:1011B000002B03D07B6800229A6035E07B684FF4F7
:1011C00080429A6030E000BF0087930300380240FD
:1011D00000380140FF2C3101BF0E1602FFE0F5057B
:1011E0007FD1F0087B68DB68DB089AB27B689B687C
:1011F0005B089BB213439BB21A460021786800F04B
:101200004CFB0346002B0BD001233B613969786806
:1012100000F002FD7B68012283F8442001230CE0EA
:1012200040F6FF70FFF76CFD3969786800F0F4FC58
:101230007B68012283F84420002318462037BD46EE
:1012400080BD00BF80B487B000AFF860B9607A603D
:101250003B6000237B61FB6893F84530012B01D193
:10126000022352E0FB68012283F84520FB6802223A
:1012700083F84420FB68BA68DA6200237B6130E0BF
:101280007B695B01BA6813443B613B694FF4801290
:101290001A607B6940F2F45202FB03F37A6813444C
:1012A0001A463B699A60FB68DB69002B05D13B69F4
:1012B0001B6843F440023B691A603B68013B7A6952
:1012C0009A4208D27B6901335B01BA6813441A461B
:1012D0003B69DA6002E0BA683B69DA607B69013336
:1012E0007B617A693B689A42CAD3FB681B68BA681B
:1012F00003F5805310331A60FB68012283F8442001
:10130000FB68002283F84520002318461C37BD46A1
:101310005DF8047B704780B487B000AFF860B960B7
:101320007A603B6000237B61FB6893F84530012BBA
:1013300001D1022356E0FB68012283F84520FB68B7
:10134000022283F84420FB68BA689A6200237B611A
:1013500034E07B695B01BA6813443B613B694FF041
:1013600000421A603B6944F2F4525A607B6940F2D1
:10137000F45202FB03F37A6813441A463B699A60FD
:10138000FB689B69012B05D13B695B6823F0004238
:101390003B695A603B68013B7A699A4208D27B6993
:1013A00001335B01BA6813441A463B69DA6002E014
:1013B000BA683B69DA607B6901337B617A693B68B3
:1013C0009A42C6D3FB681B68BA6803F580530C3396
:1013D0001A60FB68012283F84420FB68002283F82E
:1013E0004520002318461C37BD465DF8047B704736
:1013F00080B487B000AF7860396000237B61002340
:10140000FB6000233B617B6893F84530012B01D1E1
:101410000223CDE07B68012283F845207B6802220D
:1014200083F844203B68002B09D17B68012283F8B4
:1014300044207B68002283F845200123B8E07B68C4
:10144000DB6A1B68002B09DA7B68122283F84420D0
:101450007B68002283F845200123A9E03B6840F225
:10146000F452934215D93B68544AA2FB03239B0ACA
:101470007B613A68514BA3FB02139B0A40F2F45183
:1014800001FB03F3D31A002B05D07B6901337B6189
:1014900001E001237B617B69012B1CD17B68DB6A46
:1014A0001A687B68DB6A42F040521A607B68DB6A2C
:1014B0003A68C2F30C025A607B68DB6A1A687B6880
:1014C000DB6A42F000421A607B68DB6ADB681A461E
:1014D0007B68DA624BE000233B6144E07B68DB6AB7
:1014E0001A687B68DB6A22F040521A603B69002B65
:1014F00007D17B68DB6A1A687B68DB6A42F080523E
:101500001A607B68DB6A40F2F4525A607B69013BE7
:101510003A699A4216D17B68DB6A1A687B68DB6A93
:1015200042F000521A607B69254A02FB03F23B68D5
:10153000134403F2F453FB607B68DB6AFA68C2F37E
:101540000C025A607B68DB6A1A687B68DB6A42F0CF
:1015500000421A607B68DB6ADB681A467B68DA62E5
:101560003B6901333B613A697B699A42B6D37B6838
:101570001B6803F5805314331B6803F00403002B2E
:101580000DD07B681B6803F58053143304221A6066
:101590007B681B6803F58053043300221A607B6864
:1015A000012283F844207B68002283F84520002331
:1015B00018461C37BD465DF8047B70470BB002AC83
:1015C0000CFAFFFF80B485B000AF78600023FB60A9
:1015D0007B6893F84530012B01D1022374E07B68CE
:1015E000012283F845207B68022283F844205AE0D8
:1015F000FB680133FB607B689B6A1B6803F44073E4
:10160000B3F5007F0DD17B689A6A7B681A637B68AB
:1016100001229A637B689B6ADB681A467B689A6240
:1016200041E07B689B6A1B6803F44073002B0BD17D
:101630007B689B6B5A1C7B689A637B689B6ADB6840
:101640001A467B689A622EE07B689A6A7B685A63C6
:101650007B689B6B5A1C7B689A637B689B6B012B36
:1016600003D17B689A6A7B681A637B689B6A1B68F4
:101670001B0CC3F30D031A1F7B68DA637B681B6BBB
:101680009A687B681A647B689B6ADB681A467B6889
:101690009A627B68012283F844207B68002283F8E9
:1016A0004520002310E07B689B6A1B68002B02DB4F
:1016B000FB68032B9CD97B68012283F844207B685C
:1016C000002283F84520012318461437BD465DF8F3
:1016D000047B704780B582B000AF78607B681B6880
:1016E00003F5805314331B6803F04003402B12D1E1
:1016F000786805F08FF87B681B6803F58053143316
:1017000040221A607B68012283F844207B68002213
:1017100083F845201BE07B681B6803F58053143376
:101720001B6803F00103012B11D1786800F039F830
:101730007B681B6803F58053143301221A607B68B1
:10174000012283F844207B68002283F845207B68CF
:101750001B6803F5805314334FF480321A607B68A2
:101760001B6803F5805314331B6803F40043B3F57F
:10177000004F12D1786800F01EF87B681B6803F5F3
:10178000805314334FF400421A607B68012283F8BF
:1017900044207B68002283F8452000BF0837BD46FF
:1017A00080BD80B483B000AF786000BF0C37BD4609
:1017B0005DF8047B704780B483B000AF786000BFF1
:1017C0000C37BD465DF8047B704780B586B000AF2E
:1017D000F8600B467A607B8100237B6100233B61CC
:1017E000FB6893F84430DBB2822B01D1022350E036
:1017F000FB68822283F84420FB681B681B697B61BD
:101800007B6903F01C037B61FB681B8ADB029BB2D4
:101810007A6913437B617B899B0103F4F8637A69DE
:1018200013437B617B6923F002037B617B6943F097
:1018300001037B61FB681B687A691A61FFF754FA40
:10184000386115E0FFF750FA02463B69D31AB3F549
:10185000803F09D3FB68012283F84420FB68002203
:1018600083F84520032314E0FB681B681B697B6138
:101870007B6903F00103002BE4D1FB681B685B6903
:101880009BB21A467B681A60FB68012283F84420E9
:10189000002318461837BD4680BD80B586B000AF1E
:1018A000F8600B467A607B8100237B6100233B61FB
:1018B000FB6893F84430DBB2422B01D102234EE0A7
:1018C000FB68422283F84420FB681B681B697B612C
:1018D0007B6903F01C037B61FB681B8ADB029BB204
:1018E0007A6913437B617B899B0103F4F8637A690E
:1018F00013437B617B6943F002037B617B6943F0A7
:1019000001037B617B689AB2FB681B685A61FB68C4
:101910001B687A691A61FFF7E7F9386115E0FFF78C
:10192000E3F902463B69D31AB3F5803F09D3FB685C
:10193000012283F84420FB68002283F8452003231A
:101940000DE0FB681B681B697B617B6903F0010389
:10195000002BE4D1FB68012283F8442000231846C1
:101960001837BD4680BD80B582B000AF78607B6817
:1019700093F84530012B01D102231FE07B6801223F
:1019800083F845207B68022283F84420786800F0C1
:1019900045FB786800F07CFB786800F013FC786801
:1019A00000F0B0FB786800F0DDFB7B68012283F873
:1019B00044207B68002283F845200023184608371E
:1019C000BD4680BD80B582B000AF78607B6893F87B
:1019D0004530012B01D102231FE07B68012283F8EF
:1019E00045207B68022283F84420786800F0A2FB3F
:1019F000786800F0CFFB786800F067FB786800F04B
:101A0000E1FB786800F027FB7B68012283F8442023
:101A10007B68002283F84520002318460837BD461E
:101A200080BD000080B584B000AF786039600023CD
:101A3000FB607B6893F84530012B01D10223E4E081
:101A40007B68012283F845207B68022283F84420CA
:101A50003B68002B00F0B1807B681B681B68FB6053
:101A6000FA686C4B1340FB603B681A683B685B6824
:101A70001A433B689B681A433B68DB681A437B68E0
:101A80009B681A433B681B691A433B685B691A43AE
:101A90007B68DB681A433B689B691A433B68DB69D8
:101AA0001A433B681B6A1A433B685B6A1A433B68EC
:101AB0009B6A1343FA681343FB607B681B68FA68F0
:101AC0001A607B681B681B68FB600120FFF718F930
:101AD0007B681B68FA681A603B68DA6A3B681B6BB4
:101AE0001A433B685B6B1A433B689B6B1A433B682A
:101AF000DB6B1A433B681B6C1A433B685B6C42EA26
:101B000003013B689A6C7B681B680A435A607B68D8
:101B10001B685B68FB600120FFF7F2F87B681B68BD
:101B2000FA685A607B681B683A68D26C9A607B6876
:101B30001B683A68126DDA607B681B689B69FB6002
:101B4000FA684FF641731340FB603B685B6D1A0403
:101B50003B689B6D1A433B68DB6D1A433B681B6E09
:101B60001A433B685B6E1A433B689B6E1343FA68EB
:101B70001343FB607B681B68FA689A617B681B688B
:101B80009B69FB600120FFF7BBF87B681B68FA6864
:101B90009A613B68D96E3B681A6F7B681B680A4381
:101BA000DA617B681B68DB69FB600120FFF7A8F83E
:101BB0007B681B68FA68DA611EE07B681B681B683B
:101BC000FB60FB6823F49043FB607B689A687B684A
:101BD000DB681343FA681343FB607B681B68FA6891
:101BE0001A607B681B681B68FB600120FFF788F8A0
:101BF0007B681B68FA681A607B68012283F84420BE
:101C00007B68002283F84520002318461037BD4624
:101C100080BD00BF0F8120FF80B5B0B000AF7860FD
:101C200039600023C7F8BC303B68002B07D07B68C5
:101C30004FF40062DA607B684FF480429A600023C0
:101C4000BB640023FB6400233B6500237B6500230A
:101C5000BB650023FB657B68DB69002B03D14FF478
:101C600080633B6601E000233B664FF400737B66B4
:101C70000023BB660023FB6600233B6700237B67D2
:101C80000023BB674023FB670023C7F88030002395
:101C9000C7F884300023C7F888300023C7F88C3099
:101CA0000023C7F890300023C7F894300023C7F80A
:101CB00098300023C7F89C308023C7F8A030002359
:101CC000C7F8A4300023C7F8A8300023C7F8AC3009
:101CD0000023C7F8B0300023C7F8B4300023C7F89A
:101CE000B8307B681B681B68C7F8BC30D7F8BC20CD
:101CF000AC4B1340C7F8BC30BA6CFB6C1A433B6D5D
:101D00001A437B6D1A437B689B681A43BB6D1A4369
:101D1000FB6D1A437B68DB681A433B6E1A437B6E8C
:101D20001A43BB6E1A43FB6E1A433B6F1343D7F83B
:101D3000BC201343C7F8BC307B681B68D7F8BC20B5
:101D40001A607B681B681B68C7F8BC300120FEF76F
:101D5000D7FF7B681B68D7F8BC201A607A6FBB6F0F
:101D60001A43FB6F1A43D7F880301A43D7F88430F0
:101D70001A43D7F888301A43D7F88C3042EA030167
:101D8000D7F890207B681B680A435A607B681B6801
:101D90005B68C7F8BC300120FEF7B2FF7B681B68A8
:101DA000D7F8BC205A607B681B68D7F894209A60EB
:101DB0007B681B68D7F89820DA607B681B689B6992
:101DC000C7F8BC30D7F8BC204FF641731340C7F8B2
:101DD000BC30D7F89C301A04D7F8A0301A43D7F893
:101DE000A4301A43D7F8A8301A43D7F8AC301A43B6
:101DF000D7F8B0301343D7F8BC201343C7F8BC3032
:101E00007B681B68D7F8BC209A617B681B689B695C
:101E1000C7F8BC300120FEF773FF7B681B68D7F85A
:101E2000BC209A61D7F8B410D7F8B8207B681B683B
:101E30000A43DA617B681B68DB69C7F8BC300120A4
:101E4000FEF75EFF7B681B68D7F8BC20DA610023D1
:101E5000BB604FF00073FB6000233B614FF4001345
:101E60007B610023BB610023FB6100233B620023F5
:101E70007B620423BB624FF00073FB624FF480333C
:101E80003B634FF480037B634FF40053BB638023B9
:101E9000FB6300233B6400237B647B681B6803F5C2
:101EA000805318331B68C7F8BC30D7F8BC203E4BB2
:101EB0001340C7F8BC30BA68FB681A433B691A4341
:101EC0007B691A43BB691A43FB691A433B6A1A438D
:101ED0007B6A1A43BB6A1343D7F8BC201343C7F885
:101EE000BC307B681B6803F580531833D7F8BC20DF
:101EF0001A607B681B6803F5805318331B68C7F8AA
:101F0000BC300120FEF7FCFE7B681B6803F58053A4
:101F10001833D7F8BC201A60FA6A3B6B1A437B6B04
:101F20001A43BB6B1A43FB6B1A433B6C9B001A436F
:101F30007B6C1A437B681B6842F4000203F58053F4
:101F40001A607B681B6803F580531B68C7F8BC30B8
:101F50000120FEF7D5FE7B681B6803F58053D7F898
:101F6000BC201A607B689B69012B0FD17B681B68C2
:101F700003F580531C331A687B681B6842F4803277
:101F800042F0400203F580531C331A607B685B69A2
:101F90001A460021786800F009F800BFC037BD4636
:101FA00080BD00BF0F8120FF233FDEF880B487B0E3
:101FB00000AFF860B9607A607B6805331B781B025C
:101FC0007A680432127813437B61BA68114B134468
:101FD0001A467B6913607B6803331B781A067B689B
:101FE00002331B781B041A437B6801331B781B02E6
:101FF00013437A68127813437B61BA68064B134423
:102000001A467B69136000BF1C37BD465DF8047B30
:10201000704700BF408002404480024080B584B0D9
:1020200000AF78600023FB607B681B681A687B68E0
:102030001B6842F008021A607B681B681B68FB6023
:10204000012000F0E9F87B681B68FA681A6000BF9D
:102050001037BD4680BD80B584B000AF78600023E6
:10206000FB607B681B681A687B681B6822F00802AB
:102070001A607B681B681B68FB60012000F0CCF8CD
:102080007B681B68FA681A6000BF1037BD4680BDC8
:1020900080B584B000AF78600023FB607B681B686C
:1020A0001A687B681B6842F004021A607B681B6830
:1020B0001B68FB60012000F0AFF87B681B68FA68C2
:1020C0001A6000BF1037BD4680BD80B584B000AF38
:1020D00078600023FB607B681B681A687B681B685C
:1020E00022F004021A607B681B681B68FB600120F9
:1020F00000F092F87B681B68FA681A6000BF10371E
:10210000BD4680BD80B483B000AF78607B681B683B
:1021100003F5805318331A687B681B6842F4005239
:1021200003F5805318331A6000BF0C37BD465DF8C5
:10213000047B704780B483B000AF78607B681B6815
:1021400003F5805318331A687B681B6822F4005229
:1021500003F5805318331A6000BF0C37BD465DF895
:10216000047B704780B483B000AF78607B681B68E5
:1021700003F5805318331A687B681B6842F002022B
:1021800003F5805318331A6000BF0C37BD465DF865
:10219000047B704780B483B000AF78607B681B68B5
:1021A00003F5805318331A687B681B6822F002021B
:1021B00003F5805318331A6000BF0C37BD465DF835
:1021C000047B704780B584B000AF78600023FB606B
:1021D0007B681B6803F5805318331A687B681B689B
:1021E00042F4801203F5805318331A607B681B6831
:1021F00003F5805318331B68FB60012000F00CF8D6
:102200007B681B68FA6803F5805318331A6000BFB7
:102210001037BD4680BD000080B485B000AF786047
:102220000B4B1B680B4AA2FB03235B0A7A6802FB79
:1022300003F3FB6000BFFB685A1EFA60002BF9D164
:1022400000BF00BF1437BD465DF8047B704700BF78
:1022500000000020D34D621080B489B000AF7860D8
:10226000396000237B6100233B610023BB610023B5
:10227000FB6177E10122FB6902FA03F37B613B68B2
:102280001B687A6913403B613A697B699A4240F066
:1022900066813B685B6803F00303012B05D03B6854
:1022A0005B6803F00303022B30D17B689B68BB6142
:1022B000FB695B00032202FA03F3DB43BA691340B4
:1022C000BB613B68DA68FB695B0002FA03F3BA6939
:1022D0001343BB617B68BA699A607B685B68BB61CA
:1022E0000122FB6902FA03F3DB43BA691340BB61C5
:1022F0003B685B681B0903F00102FB6902FA03F308
:10230000BA691343BB617B68BA695A603B685B6812
:1023100003F00303032B17D07B68DB68BB61FB6909
:102320005B00032202FA03F3DB43BA691340BB618B
:102330003B689A68FB695B0002FA03F3BA691343CE
:10234000BB617B68BA69DA603B685B6803F00303D2
:10235000022B23D1FB69DA087B68083253F822305C
:10236000BB61FB6903F007039B000F2202FA03F332
:10237000DB43BA691340BB613B681A69FB6903F030
:1023800007039B0002FA03F3BA691343BB61FB69BD
:10239000DA087B680832B96943F822107B681B6849
:1023A000BB61FB695B00032202FA03F3DB43BA69FA
:1023B0001340BB613B685B6803F00302FB695B0091
:1023C00002FA03F3BA691343BB617B68BA691A6006
:1023D0003B685B6803F44033002B00F0C0800023AF
:1023E000FB60664B5B6C654A43F480435364634B0C
:1023F0005B6C03F48043FB60FB68614AFB699B08EC
:10240000023352F82330BB61FB6903F003039B00E6
:102410000F2202FA03F3DB43BA691340BB617B6806
:10242000584A934237D07B68574A934231D07B68F1
:10243000564A93422BD07B68554A934225D07B68FD
:10244000544A93421FD07B68534A934219D07B6809
:10245000524A934213D07B68514A93420DD07B6815
:10246000504A934207D07B684F4A934201D10923D7
:1024700012E00A2310E008230EE007230CE00623F5
:102480000AE0052308E0042306E0032304E0022316
:1024900002E0012300E00023FA6902F00302920047
:1024A0009340BA691343BB613549FB699B0802330A
:1024B000BA6941F823203D4B1B68BB613B69DB4394
:1024C000BA691340BB613B685B6803F48033002B3F
:1024D00003D0BA693B691343BB61344ABB691360DB
:1024E000324B5B68BB613B69DB43BA691340BB613C
:1024F0003B685B6803F40033002B03D0BA693B6987
:102500001343BB61294ABB695360284B9B68BB617D
:102510003B69DB43BA691340BB613B685B6803F40A
:102520008013002B03D0BA693B691343BB611F4A78
:10253000BB6993601D4BDB68BB613B69DB43BA69D8
:102540001340BB613B685B6803F40013002B03D0AE
:10255000BA693B691343BB61144ABB69D360FB6929
:102560000133FB61FB690F2B7FF684AE00BF00BF18
:102570002437BD465DF8047B704700BF0038024039
:102580000038014000000240000402400008024000
:10259000000C0240001002400014024000180240EB
:1025A000001C02400020024000240240003C014088
:1025B00080B483B000AF78600B467B8013467B709D
:1025C0007B78002B03D07A887B689A6103E07B8854
:1025D0001A047B689A6100BF0C37BD465DF8047B26
:1025E0007047F0B58FB00AAF78607B68002B01D1DF
:1025F000012354E07B681B68FB607B6893F8F93229
:10260000DBB2002B06D17B68002283F8F8227868C1
:1026100017F03CFB7B68032283F8F922FB68DB6B35
:1026200003F48073002B02D17B6800221A617B685F
:102630001B68184602F022FF7B681B683B607E68BF
:102640006D4606F110040FCC0FC50FCC0FC594E8F2
:10265000030085E80300331D0ECB386802F09CFEB2
:102660007B681B680121184602F019FF7B681B6814
:102670003B607E686D4606F110040FCC0FC50FCC91
:102680000FC594E8030085E80300331D0ECB3868BE
:1026900003F080F87B68012283F8F92200231846B2
:1026A0001437BD46F0BD90B589B004AF78600846D8
:1026B00011461A460346FB700B46BB7013467B70EF
:1026C0007B6893F8F832012B01D1022376E07B6816
:1026D000012283F8F822FB787A682C2101FB03F3AE
:1026E00013443D3300221A70FB787A682C2101FBD9
:1026F00003F3134438337A781A70FB787A682C2104
:1027000001FB03F3134440333A8D1A80FB787A6857
:102710002C2101FB03F313443933FA781A70FB7848
:102720007A682C2101FB03F313443F3397F82420EC
:102730001A70FB78BA7802F07F02D0B27A682C2146
:1027400001FB03F313443A3302461A7097F902303F
:10275000002B09DAFB787A682C2101FB03F3134480
:102760003B3301221A7008E0FB787A682C2101FBC8
:1027700003F313443B3300221A70FB787A682C2150
:1027800001FB03F313443C3397F820201A707B6855
:1027900018687C78BA78F9783B8D029397F82430E2
:1027A000019397F820300093234603F06DF9034618
:1027B000FB737B68002283F8F822FB7B18461437F2
:1027C000BD4690BD80B584B000AF78600B46FB700D
:1027D0000023FB737B6893F8F832012B01D10223AD
:1027E0000FE07B68012283F8F8227B681B68FA7887
:1027F0001146184603F0A9FB7B68002283F8F822F3
:10280000FB7B18461037BD4680BD000080B582B006
:1028100000AF7860084611461A460346FB700B4627
:10282000BB7013467B70FB787A682C2101FB03F3A5
:1028300013443B33BA781A70FB787A682C2101FB79
:1028400003F313443F337A781A703B7C002B12D188
:10285000FB787A682C2101FB03F3134442330322F3
:102860001A70FB787A682C2101FB03F313443D3383
:102870003A7F1A7008E0FB787A682C2101FB03F399
:102880001344423302221A707B78032B00F2C68075
:1028900001A252F823F000BFA9280008092A000865
:1028A0000D2900088B2900083B7C012B40F0B880E3
:1028B000BB78002B40F0B4803B8B002B08D1FB7819
:1028C0007A682C2101FB03F31344553301221A705B
:1028D000FB787A682C2101FB03F3134455331B78F2
:1028E000002B09D1FB787A682C2101FB03F31344F8
:1028F000423300221A7093E0FB787A682C2101FBA6
:1029000003F31344423302221A7089E0BB78002B90
:102910001DD1FB787A682C2101FB03F31344553356
:102920001B78002B09D1FB787A682C2101FB03F37B
:102930001344423300221A7073E0FB787A682C212A
:1029400001FB03F31344423302221A7069E0FB785F
:102950007A682C2101FB03F3134454331B78002BBA
:1029600009D1FB787A682C2101FB03F3134442332D
:1029700000221A7055E0FB787A682C2101FB03F3E2
:102980001344423302221A704BE0BB78002B1DD156
:10299000FB787A682C2101FB03F3134455331B7831
:1029A000002B09D1FB787A682C2101FB03F3134437
:1029B000423300221A7034E0FB787A682C2101FB44
:1029C00003F31344423302221A702AE0FB787A6838
:1029D0002C2101FB03F3134454331B78002B09D142
:1029E000FB787A682C2101FB03F313444233002265
:1029F0001A7016E0FB787A682C2101FB03F313446C
:102A0000423302221A700CE0FB787A682C2101FB19
:102A100003F31344423300221A7002E000BF00E0C7
:102A200000BFFB787A682C2101FB03F31344443385
:102A30007A691A60FB783A8B79682C2000FB03F3E3
:102A40000B444C331A60FB787A682C2101FB03F3AA
:102A50001344603300221A70FB787A682C2101FB42
:102A600003F31344503300221A60FB787A682C2158
:102A700001FB03F313443933FA781A70FB787A6850
:102A80002C2101FB03F31344613300221A707B688D
:102A90001868FB782C2202FB03F338337A68D118CC
:102AA0007B681B69DBB21A4603F0FCF80346184644
:102AB0000837BD4680BD00BF80B586B000AF7860E6
:102AC0007B681B683B613B69FB607B681B68184641
:102AD00002F01FFE0346012B40F0F6807B681B6866
:102AE000184602F003FE0346002B00F0EC807B68E2
:102AF0001B68184602F0FAFD034603F40013B3F511
:102B0000001F04D17B681B684FF400125A617B6878
:102B10001B68184602F0EAFD034603F48013B3F580
:102B2000801F04D17B681B684FF480125A617B6858
:102B30001B68184602F0DAFD034603F08063B3F128
:102B4000806F04D17B681B684FF080625A617B689C
:102B50001B68184602F0CAFD034603F00203022B6D
:102B600003D17B681B6802225A617B681B68184688
:102B700002F0BCFD034603F00053B3F1005F1CD12B
:102B80007B681B684FF000525A61FB6803F588634D
:102B90001B6803F00103002B0FD11021386902F0EC
:102BA000CBFC386902F0ECFC7B681B6801211846FD
:102BB00002F0A4FE786817F0E7F87B681B681846F7
:102BC00002F094FD034603F08073B3F1807F02D1DD
:102BD000786801F003FA7B681B68184602F086FDEE
:102BE000034603F00803082B06D1786817F0B0F805
:102BF0007B681B6808225A617B681B68184602F0D4
:102C000075FD034603F01003102B01D1012300E0F2
:102C10000023002B12D07B681B689A697B681B68B5
:102C200022F010029A61786801F006F97B681B684F
:102C30009A697B681B6842F010029A617B681B6886
:102C4000184602F053FD034603F00073B3F1007F12
:102C50003AD17B681B68184603F066F9B860002318
:102C60007B6125E07B6903F00F03BA6822FA03F366
:102C700003F00103002B18D07B695A01FB68134451
:102C800003F5A0631B6803F40043B3F5004F06D1BE
:102C90007B69DBB21946786800F0ABF805E07B6928
:102CA000DBB21946786800F0C6FC7B6901337B61B2
:102CB0007B689B687A699A42D4D37B681B684FF023
:102CC00000725A6100E000BF1837BD4680BD80B574
:102CD00082B000AF78607B6893F8F832012B01D1A5
:102CE000022313E07B68012283F8F8227B681B68CB
:102CF0000121184602F066FE7B681B68184602F048
:102D0000ACFB7B68002283F8F822002318460837C2
:102D1000BD4680BD80B582B000AF78607B6893F817
:102D2000F832012B01D102230DE07B68012283F8E8
:102D3000F8227B681B68184603F060FA7B68002263
:102D400083F8F822002318460837BD4680BD80B5B9
:102D500082B000AF78607B681B68184602F008FEFE
:102D6000034618460837BD4680BD80B483B000AF27
:102D700078600B46FB70FB787A682C2101FB03F32B
:102D8000134460331B7818460C37BD465DF8047B4E
:102D9000704780B483B000AF78600B46FB70FB785F
:102DA0007A682C2101FB03F3134450331B68184647
:102DB0000C37BD465DF8047B704780B582B000AF2C
:102DC00078607B681B68184602F04CFE0346184684
:102DD0000837BD4680BD80B582B000AF78607B68A3
:102DE0001B68184602F027FE034618460837BD4602
:102DF00080BD80B586B000AF78600B46FB707B6805
:102E00001B687B617B693B61FB78FB60FB685A0157
:102E10003B69134403F5A0639B6803F00403042B90
:102E200019D1FB685A013B69134403F5A0631A46A4
:102E300004239360FB685A013B69134403F5A063C4
:102E4000DB68FA6851013A690A4402F5A06243F06E
:102E50000203D36001E1FB685A013B69134403F5A7
:102E6000A0639B6803F48073B3F5807F2BD1FB686C
:102E70005A013B69134403F5A0631A464FF480736B
:102E800093607A68FB682C2101FB03F313446133E0
:102E900007221A70FB685A013B69134403F5A063CB
:102EA000DB68FA6851013A690A4402F5A06243F00E
:102EB0000203D3607B681B68FA68D2B211461846D9
:102EC00003F043F8C9E0FB685A013B69134403F57A
:102ED000A0639B6803F02003202B09D1FB685A01F3
:102EE0003B69134403F5A0631A4620239360B4E0C2
:102EF000FB685A013B69134403F5A0639B6803F028
:102F00000803082B33D1FB685A013B69134403F5CE
:102F1000A063DB68FA6851013A690A4402F5A062CD
:102F200043F00203D3607A68FB682C2101FB03F3B2
:102F30001344613305221A70FB685A013B6913443C
:102F400003F5A0631A4610239360FB685A013B699E
:102F5000134403F5A0631A46082393607B681B683B
:102F6000FA68D2B21146184602F0EFFF75E0FB682E
:102F70005A013B69134403F5A0639B6803F4806323
:102F8000B3F5806F34D1FB685A013B69134403F5F4
:102F9000A063DB68FA6851013A690A4402F5A0624D
:102FA00043F00203D3607A68FB682C2101FB03F332
:102FB0001344613308221A70FB685A013B691344B9
:102FC00003F5A0631A4610239360FB685A013B691E
:102FD000134403F5A0631A464FF4806393607B6843
:102FE0001B68FA68D2B21146184602F0AEFF34E010
:102FF000FB685A013B69134403F5A0639B6803F027
:103000008003802B29D1FB685A013B69134403F5E7
:10301000A063DB68FA6851013A690A4402F5A062CC
:1030200043F00203D3607A68FB682C2101FB03F3B1
:103030001344613306221A707B681B68FA68D2B2A7
:103040001146184602F081FFFB685A013B691344A0
:1030500003F5A0631A4680239360FB685A013B691D
:10306000134403F5A0639B6803F40073B3F5007F7A
:1030700022D1FB685A013B69134403F5A063DB6866
:10308000FA6851013A690A4402F5A06243F002036A
:10309000D3607B681B68FA68D2B21146184602F00A
:1030A00054FFFB685A013B69134403F5A0631A46B9
:1030B0004FF400739360BAE2FB685A013B69134412
:1030C00003F5A0639B6803F00103012B40F01B8113
:1030D0007B681B69002B19D07A68FB682C2101FBE7
:1030E00003F3134448331A68FB6859013B690B44E6
:1030F00003F5A0631B69C3F31203D21A7968FB6856
:103100002C2000FB03F30B4450331A607A68FB68F1
:103110002C2101FB03F31344613301221A707A68F6
:10312000FB682C2101FB03F313445C3300221A607B
:10313000FB685A013B69134403F5A0631A46012357
:1031400093607A68FB682C2101FB03F313443F333F
:103150001B78002B09D07A68FB682C2101FB03F354
:1031600013443F331B78022B21D1FB685A013B6982
:10317000134403F5A063DB68FA6851013A690A4415
:1031800002F5A06243F00203D3607B681B68FA6813
:10319000D2B21146184602F0D8FEFB685A013B69CC
:1031A000134403F5A0631A461023936066E07A681F
:1031B000FB682C2101FB03F313443F331B78032BE3
:1031C00027D1FB685A013B69134403F5A0631B68D0
:1031D000FA6851013A690A4402F5A06243F00053CB
:1031E00013607A68FB682C2101FB03F313446033FE
:1031F00001221A70FB68D9B27A68FB682C2000FBA8
:1032000003F3134460331B781A46786816F0CAFD3E
:1032100034E07A68FB682C2101FB03F313443F334D
:103220001B78012B2AD17A68FB682C2101FB03F360
:103230001344603301221A707A68FB682C2101FB69
:1032400003F3134454331B7883F00103D8B27A6834
:10325000FB682C2101FB03F31344543302461A701C
:10326000FB68D9B27A68FB682C2000FB03F3134497
:1032700060331B781A46786816F094FD7B681B69EA
:10328000012B2BD17A68FB682C2101FB03F313443B
:1032900048331B687968FA682C2000FB02F20A4464
:1032A00040321288B3FBF2F303F00103002B00F06D
:1032B000BE817A68FB682C2101FB03F3134454336D
:1032C0001B7883F00103D8B27A68FB682C2101FBDC
:1032D00003F31344543302461A70A8E17A68FB687A
:1032E0002C2101FB03F3134454331B7883F00103B7
:1032F000D8B27A68FB682C2101FB03F313445433E2
:1033000002461A7093E1FB685A013B69134403F5C6
:10331000A0639B6803F00203022B40F00681FB6868
:103320005A013B69134403F5A063DB68FA68510155
:103330003A690A4402F5A06223F00203D3607A6876
:10334000FB682C2101FB03F3134461331B78012B31
:1033500009D17A68FB682C2101FB03F31344603325
:1033600001221A70C9E07A68FB682C2101FB03F383
:10337000134461331B78052B09D17A68FB682C2133
:1033800001FB03F31344603305221A70B5E07A6839
:10339000FB682C2101FB03F3134461331B78062BDC
:1033A00009D07A68FB682C2101FB03F313446133D5
:1033B0001B78082B50D17A68FB682C2101FB03F3A2
:1033C00013445C331B685A1C7968FB682C2000FB93
:1033D00003F30B445C331A607A68FB682C2101FB11
:1033E00003F313445C331B68022B12D97A68FB6821
:1033F0002C2101FB03F313445C3300221A607A682A
:10340000FB682C2101FB03F31344603304221A7080
:1034100073E07A68FB682C2101FB03F313446033EB
:1034200002221A70FB685A013B69134403F5A0633A
:103430001B68BB60BB6823F08043BB60BB6843F084
:103440000043BB60FB685A013B69134403F5A0636A
:103450001A46BB68136050E07A68FB682C2101FBB8
:1034600003F3134461331B78032B22D17A68FB6882
:103470002C2101FB03F31344603302221A70FB6812
:103480005A013B69134403F5A0631B68BB60BB682A
:1034900023F08043BB60BB6843F00043BB60FB6824
:1034A0005A013B69134403F5A0631A46BB681360D5
:1034B00023E07A68FB682C2101FB03F3134461339A
:1034C0001B78072B19D17A68FB682C2101FB03F3C9
:1034D00013445C331B685A1C7968FB682C2000FB82
:1034E00003F30B445C331A607A68FB682C2101FB00
:1034F00003F31344603304221A70FB685A013B69DA
:10350000134403F5A0631A4602239360FB68D9B203
:103510007A68FB682C2000FB03F3134460331B78AC
:103520001A46786816F03EFC81E0FB685A013B6958
:10353000134403F5A0639B6803F01003102B76D1AE
:103540007A68FB682C2101FB03F313443F331B789B
:10355000032B21D17A68FB682C2101FB03F3134470
:103560005C3300221A60FB685A013B69134403F57F
:10357000A063DB68FA6851013A690A4402F5A06267
:1035800043F00203D3607B681B68FA68D2B211462D
:10359000184602F0DAFC41E07A68FB682C2101FB56
:1035A00003F313443F331B78002B09D07A68FB6880
:1035B0002C2101FB03F313443F331B78022B2DD145
:1035C0007A68FB682C2101FB03F313445C3300226F
:1035D0001A607B681B69002B20D17A68FB682C215C
:1035E00001FB03F31344613303221A70FB685A0191
:1035F0003B69134403F5A063DB68FA6851013A693B
:103600000A4402F5A06243F00203D3607B681B68A2
:10361000FA68D2B21146184602F097FCFB685A01CC
:103620003B69134403F5A0631A461023936000BF5F
:103630001837BD4680BD80B588B000AF78600B46B6
:10364000FB707B681B68FB61FB69BB61FB787B617E
:103650007B695A01BB69134403F5A0639B6803F0BF
:103660000403042B19D17B695A01BB69134403F588
:10367000A0631A46042393607B695A01BB69134413
:1036800003F5A063DB687A695101BA690A4402F55F
:10369000A06243F00203D360CAE37B695A01BB69AD
:1036A000134403F5A0639B6803F02003202B3ED155
:1036B0007B695A01BB69134403F5A0631A462023B2
:1036C00093607A687B692C2101FB03F313443D333B
:1036D0001B78012B40F0AC837A687B692C2101FBBD
:1036E00003F313443D3300221A707A687B692C215E
:1036F00001FB03F31344603302221A707B695A0101
:10370000BB69134403F5A063DB687A695101BA69A8
:103710000A4402F5A06243F00203D3607B681B6891
:103720007A69D2B21146184602F00FFC80E37B6939
:103730005A01BB69134403F5A0639B6803F400734B
:10374000B3F5007F22D17B695A01BB69134403F5AD
:10375000A063DB687A695101BA690A4402F5A06284
:1037600043F00203D3607B681B687A69D2B21146CA
:10377000184602F0EAFB7B695A01BB69134403F562
:10378000A0631A464FF40073936051E37B695A01BA
:10379000BB69134403F5A0639B6803F00103012B8D
:1037A00050D17A687B692C2101FB03F313445C330D
:1037B00000221A607B695A01BB69134403F5A063B8
:1037C0009B6803F04003402B11D17A687B692C2160
:1037D00001FB03F313443D3301221A707B695A0144
:1037E000BB69134403F5A0631A46402393607B69C9
:1037F0005A01BB69134403F5A063DB687A69510180
:10380000BA690A4402F5A06243F00203D3607B6800
:103810001B687A69D2B21146184602F096FB7B69A2
:103820005A01BB69134403F5A0631A460123936050
:103830007A687B692C2101FB03F313446133012275
:103840001A70F5E27B695A01BB69134403F5A06362
:103850009B6803F04003402B3CD17A687B692C21A4
:1038600001FB03F31344613304221A707A687B6905
:103870002C2101FB03F313443D3301221A707A68B3
:103880007B692C2101FB03F313445C3300221A6093
:103890007B695A01BB69134403F5A063DB687A694D
:1038A0005101BA690A4402F5A06243F00203D360F1
:1038B0007B681B687A69D2B21146184602F045FB54
:1038C0007B695A01BB69134403F5A0631A46402380
:1038D0009360ADE27B695A01BB69134403F5A063B1
:1038E0009B6803F00803082B2AD17B695A01BB6946
:1038F000134403F5A0631A46082393607B695A01B9
:10390000BB69134403F5A063DB687A695101BA69A6
:103910000A4402F5A06243F00203D3607B681B688F
:103920007A69D2B21146184602F00FFB7A687B69B9
:103930002C2101FB03F31344613305221A7077E253
:103940007B695A01BB69134403F5A0639B6803F0CC
:103950001003102B50D17A687B692C2101FB03F3F3
:1039600013445C3300221A607A687B692C2101FBC6
:1039700003F31344613303221A707A687B692C21A4
:1039800001FB03F313443D331B78002B12D17A68FB
:103990007B692C2101FB03F313443C331B78002B80
:1039A00008D17A687B692C2101FB03F313443D3372
:1039B00001221A707B695A01BB69134403F5A063A5
:1039C000DB687A695101BA690A4402F5A06243F0E2
:1039D0000203D3607B681B687A69D2B2114618462D
:1039E00002F0B3FA7B695A01BB69134403F5A06383
:1039F0001A46102393601BE27B695A01BB6913448A
:103A000003F5A0639B6803F08003802B74D17B686F
:103A10001B69002B21D17A687B692C2101FB03F300
:103A20001344613306221A707B695A01BB6913443F
:103A300003F5A063DB687A695101BA690A4402F5AB
:103A4000A06243F00203D3607B681B687A69D2B23C
:103A50001146184602F079FA44E07A687B692C2115
:103A600001FB03F313445C331B685A1C79687B69C0
:103A70002C2000FB03F30B445C331A607A687B69EB
:103A80002C2101FB03F313445C331B68022B20D968
:103A90007A687B692C2101FB03F313445C33002219
:103AA0001A607A687B692C2101FB03F313446033AD
:103AB00004221A707B69D9B27A687B692C2000FBDA
:103AC00003F3134460331B781A46786816F06AF9DA
:103AD00008E07A687B692C2101FB03F3134460330F
:103AE00002221A707B695A01BB69134403F5A06373
:103AF0001A46802393609BE17B695A01BB6913449A
:103B000003F5A0639B6803F48063B3F5806F34D141
:103B10007B695A01BB69134403F5A063DB687A69CA
:103B20005101BA690A4402F5A06243F00203D3606E
:103B30007B681B687A69D2B21146184602F005FA12
:103B40007B695A01BB69134403F5A0631A4610232D
:103B500093607B695A01BB69134403F5A0631A465D
:103B60004FF4806393607A687B692C2101FB03F337
:103B70001344613308221A705AE17B695A01BB6908
:103B8000134403F5A0639B6803F00203022B40F08B
:103B90004F817B695A01BB69134403F5A063DB685D
:103BA0007A695101BA690A4402F5A06223F002035E
:103BB000D3607A687B692C2101FB03F313446133E2
:103BC0001B78012B7DD17A687B692C2101FB03F3E3
:103BD0001344603301221A707A687B692C2101FB3F
:103BE00003F313443F331B78022B0AD07A687B69B6
:103BF0002C2101FB03F313443F331B78032B40F0CC
:103C000000817B681B69002B13D17A687B692C21AA
:103C100001FB03F3134455331B7883F00103D8B23F
:103C20007A687B692C2101FB03F313445533024668
:103C30001A707B681B69012B40F0E3807A687B690E
:103C40002C2101FB03F313444C331B68002B00F0C1
:103C5000D8807A687B692C2101FB03F313444C3331
:103C60001B6879687A692C2000FB02F20A44403212
:103C700012881344013B79687A692C2000FB02F218
:103C80000A4440321288B3FBF2F3FB60FB6803F096
:103C90000103002B00F0B5807A687B692C2101FBC1
:103CA00003F3134455331B7883F00103D8B27A68C9
:103CB0007B692C2101FB03F31344553302461A7030
:103CC0009FE07A687B692C2101FB03F31344613385
:103CD0001B78032B09D17A687B692C2101FB03F344
:103CE0001344603302221A708BE07A687B692C21BE
:103CF00001FB03F3134461331B78042B09D17A6869
:103D00007B692C2101FB03F31344603302221A70F8
:103D100077E07A687B692C2101FB03F3134461335C
:103D20001B78052B09D17A687B692C2101FB03F3F1
:103D30001344603305221A7063E07A687B692C2192
:103D400001FB03F3134461331B78062B09D07A6817
:103D50007B692C2101FB03F3134461331B78082B8F
:103D60004FD17A687B692C2101FB03F313445C3348
:103D70001B685A1C79687B692C2000FB03F30B44F9
:103D80005C331A607A687B692C2101FB03F31344CE
:103D90005C331B68022B12D97A687B692C2101FBEA
:103DA00003F313445C3300221A607A687B692C2188
:103DB00001FB03F31344603304221A7021E07A6894
:103DC0007B692C2101FB03F31344603302221A7038
:103DD0007B695A01BB69134403F5A0631B683B610F
:103DE0003B6923F080433B613B6943F000433B6107
:103DF0007B695A01BB69134403F5A0631A463B690A
:103E000013607B695A01BB69134403F5A0631A462A
:103E1000022393607B69D9B27A687B692C2000FB0E
:103E200003F3134460331B781A46786815F0BAFF21
:103E300000BF2037BD4680BD80B58AB000AF786036
:103E40007B681B687B627B6A3B627B681B681B6AC2
:103E5000FB61FB6903F00F03BB61FB695B0C03F0C3
:103E60000F037B61FB691B09C3F30A033B617B6999
:103E7000022B04D07B69052B00F0A980AAE03B69E6
:103E8000002B00F0A6807A68BB692C2101FB03F3AC
:103E9000134444331B68002B00F09B807A68BB6995
:103EA0002C2101FB03F3134450331A683B691A4475
:103EB0007968BB692C2000FB03F30B444C331B686F
:103EC0009A427AD87B6818687A68BB692C2101FB12
:103ED00003F3134444331B683A6992B2194601F064
:103EE000ADFB7A68BB692C2101FB03F31344443317
:103EF0001A683B691A447968BB692C2000FB03F3FC
:103F00000B4444331A607A68BB692C2101FB03F32C
:103F1000134450331A683B691A447968BB692C20F2
:103F200000FB03F30B4450331A60BB695A013B6A30
:103F3000134403F5A0631B69DB0CC3F30903FB60A7
:103F40007A68BB692C2101FB03F3134440331B88BF
:103F50001A463B6993423CD1FB68002B39D0BB69C0
:103F60005A013B6A134403F5A0631B68BB60BB683E
:103F700023F08043BB60BB6843F00043BB60BB6978
:103F80005A013B6A134403F5A0631A46BB681360E9
:103F90007A68BB692C2101FB03F3134454331B786B
:103FA00083F00103D8B27A68BB692C2101FB03F3CB
:103FB0001344543302461A700BE07A68BB692C2113
:103FC00001FB03F31344603304221A7001E000BFC5
:103FD00000E000BF00BF2837BD4680BD80B586B079
:103FE00000AF78607B681B687B617B693B613B69E4
:103FF00003F588631B68FB603B6903F588631B68F6
:10400000BB60BB6823F02E03BB60FB6803F00203B8
:10401000022B0BD1FB6803F00103012B02D178685E
:1040200015F0A4FEBB6843F00203BB60FB6803F01D
:104030000803082B32D1BB6843F00803BB60FB6860
:1040400003F00403042B26D17B689B69022B13D158
:10405000FB6803F4C023B3F5802F06D17B681B688F
:104060000221184601F04AFC11E07B681B6801211F
:10407000184601F043FC0AE07B68DB68012B06D19F
:104080003B6903F580631A464EF6602353607868F7
:1040900015F09AFE02E0786815F0A4FEFB6803F0C4
:1040A0002003202B03D1BB6843F02003BB603B6996
:1040B00003F588631A46BB68136000BF1837BD4616
:1040C00080BD000080B586B000AF78607B68002BB3
:1040D00001D1012364E27B681B6803F00103002B1C
:1040E00075D0A34B9B6803F00C03042B0CD0A04BA2
:1040F0009B6803F00C03082B12D19D4B5B6803F403
:104100008003B3F5800F0BD1994B1B6803F4003388
:10411000002B5BD07B685B68002B57D101233FE20B
:104120007B685B68B3F5803F06D1914B1B68904A72
:1041300043F4803313601DE07B685B68B3F5A02F08
:104140000CD18B4B1B688A4A43F480231360884B45
:104150001B68874A43F4803313600BE0844B1B6871
:10416000834A23F480331360814B1B68804A23F415
:10417000802313607B685B68002B13D0FCF7B4FDD1
:10418000386108E0FCF7B0FD02463B69D31A642BA6
:1041900001D9032304E2764B1B6803F40033002BA0
:1041A000F0D014E0FCF7A0FD386108E0FCF79CFDBE
:1041B00002463B69D31A642B01D90323F0E16C4B0F
:1041C0001B6803F40033002BF0D100E000BF7B68D4
:1041D0001B6803F00203002B63D0654B9B6803F060
:1041E0000C03002B0BD0624B9B6803F00C03082BD5
:1041F0001CD15F4B5B6803F48003002B16D15C4B32
:104200001B6803F00203002B05D07B68DB68012BE1
:1042100001D00123C4E1564B1B6823F0F8027B68F0
:104220001B69DB00524913430B603AE07B68DB6893
:10423000002B20D04F4B01221A60FCF755FD38614E
:1042400008E0FCF751FD02463B69D31A022B01D965
:104250000323A5E1464B1B6803F00203002BF0D0BB
:10426000434B1B6823F0F8027B681B69DB00404965
:1042700013430B6015E03F4B00221A60FCF734FD3E
:10428000386108E0FCF730FD02463B69D31A022B87
:1042900001D9032384E1364B1B6803F00203002B92
:1042A000F0D17B681B6803F00803002B30D07B68DB
:1042B0005B69002B16D0304B01221A60FCF714FD0D
:1042C000386108E0FCF710FD02463B69D31A022B67
:1042D00001D9032364E1264B5B6F03F00203002B3B
:1042E000F0D015E0244B00221A60FCF7FDFC386189
:1042F00008E0FCF7F9FC02463B69D31A022B01D90E
:1043000003234DE11A4B5B6F03F00203002BF0D146
:104310007B681B6803F00403002B00F0A0800023DF
:10432000FB75134B1B6C03F08053002B0FD1002344
:10433000BB600F4B1B6C0E4A43F0805313640C4B55
:104340001B6C03F08053BB60BB680123FB750B4BF8
:104350001B6803F48073002B21D1084B1B68074AAC
:1043600043F480731360FCF7BFFC386111E000BFB9
:104370000038024000004742800E47420070004073
:10438000FCF7B2FC02463B69D31A022B01D9032386
:1043900006E1854B1B6803F48073002BF0D07B682B
:1043A0009B68012B06D1814B1B6F804A43F00103B0
:1043B00013671CE07B689B68052B0CD17B4B1B6F44
:1043C0007A4A43F004031367784B1B6F774A43F034
:1043D000010313670BE0754B1B6F744A23F0010355
:1043E0001367724B1B6F714A23F0040313677B68DA
:1043F0009B68002B15D0FCF777FC38610AE0FCF7CE
:1044000073FC02463B69D31A41F28832934201D9C8
:104410000323C5E0654B1B6F03F00203002BEED0B6
:1044200014E0FCF761FC38610AE0FCF75DFC024631
:104430003B69D31A41F28832934201D90323AFE09A
:104440005A4B1B6F03F00203002BEED1FB7D012BB7
:1044500005D1564B1B6C554A23F0805313647B687F
:104460009B69002B00F09B80504B9B6803F00C0372
:10447000082B5CD07B689B69022B41D14C4B0022FE
:104480001A60FCF731FC386108E0FCF72DFC0246AD
:104490003B69D31A022B01D9032381E0434B1B68EC
:1044A00003F00073002BF0D17B68DA697B681B6A2C
:1044B0001A437B685B6A9B011A437B689B6A5B08B3
:1044C000013B1B041A437B68DB6A1B063749134315
:1044D0004B60374B01221A60FCF706FC386108E09C
:1044E000FCF702FC02463B69D31A022B01D90323D5
:1044F00056E02E4B1B6803F00073002BF0D04EE00B
:104500002B4B00221A60FCF7EFFB386108E0FCF748
:10451000EBFB02463B69D31A022B01D903233FE090
:10452000224B1B6803F00073002BF0D137E07B684F
:104530009B69012B01D1012332E01C4B5B68FB60BE
:104540007B689B69012B28D0FB6803F480027B68A1
:10455000DB699A4221D1FB6803F03F027B681B6A4A
:104560009A421AD1FA6847F6C07313407A68526AC1
:104570009201934211D1FB6803F440327B689B6A3D
:104580005B08013B1B049A4207D1FB6803F0706291
:104590007B68DB6A1B069A4201D0012300E00023FE
:1045A00018461837BD4680BD0070004000380240F4
:1045B0006000474280B584B000AF786039607B68A6
:1045C000002B01D10123CCE0684B1B6803F00F03E3
:1045D0003A689A420CD9654B3A68D2B21A70634B6A
:1045E0001B6803F00F033A689A4201D00123B8E038
:1045F0007B681B6803F00203002B20D07B681B68DC
:1046000003F00403002B05D0594B9B68584A43F430
:10461000E05393607B681B6803F00803002B05D010
:10462000534B9B68524A43F460439360504B9B68E2
:1046300023F0F0027B689B684D4913438B607B68D5
:104640001B6803F00103002B44D07B685B68012BDF
:1046500007D1474B1B6803F40033002B19D101230A
:104660007FE07B685B68022B03D07B685B68032B71
:1046700007D13F4B1B6803F00073002B09D10123C6
:104680006FE03B4B1B6803F00203002B01D10123B9
:1046900067E0374B9B6823F003027B685B68344913
:1046A00013438B60FCF720FBF8600AE0FCF71CFB6F
:1046B0000246FB68D31A41F28832934201D90323A0
:1046C0004FE02B4B9B6803F00C027B685B689B0000
:1046D0009A42EBD1254B1B6803F00F033A689A42CC
:1046E0000CD2224B3A68D2B21A70204B1B6803F0EE
:1046F0000F033A689A4201D0012332E07B681B68BD
:1047000003F00403002B08D0194B9B6823F4E052FC
:104710007B68DB68164913438B607B681B6803F07A
:104720000803002B09D0124B9B6823F460427B687E
:104730001B69DB000E4913438B6000F021F8024631
:104740000B4B9B681B0903F00F030A49CB5C22FA51
:1047500003F3094A1360094B1B681846FCF72EF94E
:10476000002318461037BD4680BD00BF003C024004
:10477000003802405CE9010800000020040000202D
:104780002DE9B04384B000AF00237B600023FB60C1
:1047900000233B600023BB60674B9B6803F00C0366
:1047A000082B0DD0082B00F2BD80002B02D0042B6B
:1047B00003D0B7E0614BBB60B7E0614BBB60B4E0D6
:1047C0005D4B5B6803F03F037B605B4B5B6803F40E
:1047D0008003002B4DD0584B5B689B091A464FF065
:1047E000000340F2FF104FF0000102EA000803EA64
:1047F0000109404649464FF000024FF000034B01CB
:1048000043EAD063420110461946B0EB080061EB61
:1048100009014FF000024FF000038B0143EA90635F
:104820008201121A63EB01034FF000004FF0000108
:10483000D90041EA5271D00002460B4612EB080241
:1048400043EB09034FF000004FF00001590241EA29
:10485000D251500202460B46104619467B681A4652
:104860004FF00003FBF714FD02460B461346FB60B6
:104870004AE0314B5B689B091A464FF0000340F257
:10488000FF104FF0000102EA000403EA0105204690
:1048900029464FF000024FF000034B0143EAD0637A
:1048A000420110461946001B61EB05014FF0000262
:1048B0004FF000038B0143EA90638201121A63EB0D
:1048C00001034FF000004FF00001D90041EA52719E
:1048D000D00002460B46121945EB03034FF00000CF
:1048E0004FF00001990241EA9251900202460B46B4
:1048F000104619467B681A464FF00003FBF7C8FCC8
:1049000002460B461346FB600B4B5B681B0C03F027
:10491000030301335B003B60FA683B68B2FBF3F3CF
:10492000BB6002E0054BBB6000BFBB681846103798
:10493000BD46BDE8B08300BF003802400024F4004B
:1049400000127A0080B400AF034B1B681846BD46C6
:104950005DF8047B704700BF0000002080B500AF09
:10496000FFF7F0FF0246054B9B689B0A03F0070325
:104970000349CB5C22FA03F3184680BD003802409D
:104980006CE9010880B500AFFFF7DCFF0246054B7C
:104990009B685B0B03F007030349CB5C22FA03F32C
:1049A000184680BD003802406CE9010880B483B02D
:1049B00000AF786039607B680F221A60124B9B68E9
:1049C00003F003027B685A600F4B9B6803F0F00210
:1049D0007B689A600C4B9B6803F4E0527B68DA605A
:1049E000094B9B68DB0803F4E0527B681A61074BB4
:1049F0001B6803F00F023B681A6000BF0C37BD460E
:104A00005DF8047B704700BF00380240003C024064
:104A100080B582B000AF78607B68002B01D10123A4
:104A200041E07B6893F83D30DBB2002B06D17B6818
:104A3000002283F83C20786800F039F87B68022275
:104A400083F83D207B681A687B680433194610465A
:104A500000F0D8F97B68012283F846207B680122A8
:104A600083F83E207B68012283F83F207B68012287
:104A700083F840207B68012283F841207B68012273
:104A800083F842207B68012283F843207B6801225F
:104A900083F844207B68012283F845207B6801224B
:104AA00083F83D20002318460837BD4680BD80B4FA
:104AB00083B000AF786000BF0C37BD465DF8047B63
:104AC0007047000080B485B000AF78607B6893F8D1
:104AD0003D30DBB2012B01D001234EE07B68022286
:104AE00083F83D207B681B68DA687B681B6842F0AE
:104AF0000102DA607B681B68234A934222D07B68FC
:104B00001B68B3F1804F1DD07B681B681F4A93421E
:104B100018D07B681B681E4A934213D07B681B68C1
:104B20001C4A93420ED07B681B681B4A934209D0F3
:104B30007B681B68194A934204D07B681B68184A3B
:104B4000934211D17B681B689B6803F00703FB60ED
:104B5000FB68062B10D07B681B681A687B681B6893
:104B600042F001021A6007E07B681B681A687B68E4
:104B70001B6842F001021A60002318461437BD4634
:104B80005DF8047B704700BF000001400004004056
:104B900000080040000C00400004014000400140BB
:104BA0000018004080B582B000AF78607B681B6859
:104BB0001B6903F00203022B22D17B681B68DB68B0
:104BC00003F00203022B1BD17B681B686FF002020B
:104BD0001A617B6801221A777B681B689B6903F066
:104BE0000303002B03D0786800F0EEF805E0786846
:104BF00000F0E0F8786800F0F1F87B6800221A779E
:104C00007B681B681B6903F00403042B22D17B68BB
:104C10001B68DB6803F00403042B1BD17B681B6853
:104C20006FF004021A617B6802221A777B681B68A6
:104C30009B6903F44073002B03D0786800F0C4F83C
:104C400005E0786800F0B6F8786800F0C7F87B688F
:104C500000221A777B681B681B6903F00803082B86
:104C600022D17B681B68DB6803F00803082B1BD18B
:104C70007B681B686FF008021A617B6804221A7750
:104C80007B681B68DB6903F00303002B03D07868A3
:104C900000F09AF805E0786800F08CF8786800F089
:104CA0009DF87B6800221A777B681B681B6903F0FC
:104CB0001003102B22D17B681B68DB6803F0100304
:104CC000102B1BD17B681B686FF010021A617B6888
:104CD00008221A777B681B68DB6903F44073002B9A
:104CE00003D0786800F070F805E0786800F062F8AA
:104CF000786800F073F87B6800221A777B681B687D
:104D00001B6903F00103012B0ED17B681B68DB6874
:104D100003F00103012B07D17B681B686FF00102D0
:104D20001A617868FBF7BEFD7B681B681B6903F09E
:104D30008003802B0ED17B681B68DB6803F0800347
:104D4000802B07D17B681B686FF080021A6178683E
:104D500000F002F97B681B681B6903F04003402BDD
:104D60000ED17B681B68DB6803F04003402B07D142
:104D70007B681B686FF040021A61786800F038F8B1
:104D80007B681B681B6903F02003202B0ED17B6816
:104D90001B68DB6803F02003202B07D17B681B68AE
:104DA0006FF020021A61786800F0CCF800BF083775
:104DB000BD4680BD80B483B000AF786000BF0C37C3
:104DC000BD465DF8047B704780B483B000AF786067
:104DD00000BF0C37BD465DF8047B704780B483B0DC
:104DE00000AF786000BF0C37BD465DF8047B7047AC
:104DF00080B483B000AF786000BF0C37BD465DF86B
:104E0000047B704780B485B000AF786039607B6800
:104E10001B68FB607B68404A934213D07B68B3F108
:104E2000804F0FD07B683D4A93420BD07B683C4A51
:104E3000934207D07B683B4A934203D07B683A4A4F
:104E4000934208D1FB6823F07003FB603B685B680A
:104E5000FA681343FB607B682F4A93422BD07B6830
:104E6000B3F1804F27D07B682C4A934223D07B68D4
:104E70002B4A93421FD07B682A4A93421BD07B68FF
:104E8000294A934217D07B68284A934213D07B6803
:104E9000274A93420FD07B68264A93420BD07B6807
:104EA000254A934207D07B68244A934203D07B680B
:104EB000234A934208D1FB6823F44073FB603B68AC
:104EC000DB68FA681343FB60FB6823F080023B68F1
:104ED0005B691343FB607B68FA681A603B689A68F9
:104EE0007B68DA623B681A687B689A627B680A4A68
:104EF000934203D07B680C4A934203D13B681A6902
:104F00007B681A637B6801225A6100BF1437BD4673
:104F10005DF8047B704700BF0000014000040040C2
:104F200000080040000C0040000401400040014027
:104F3000004401400048014000180040001C0040AF
:104F40000020004080B483B000AF786000BF0C3711
:104F5000BD465DF8047B704780B483B000AF7860D5
:104F600000BF0C37BD465DF8047B704780B582B04A
:104F700000AF78607B68002B01D101233FE07B68A4
:104F800093F83D30DBB2002B06D17B68002283F81A
:104F90003C207868FBF7CAFC7B68242283F83D201C
:104FA0007B681B68DA687B681B6822F40052DA6051
:104FB000786800F029F87B681B681A697B681B68B1
:104FC00022F490421A617B681B685A697B681B68EF
:104FD00022F02A025A617B681B68DA687B681B68CA
:104FE00042F40052DA607B6800221A647B68202257
:104FF00083F83D207B68202283F83E20002318465A
:105000000837BD4680BD00002DE9F04F9FB000AFCE
:10501000F866FB6E1B681B6923F44050FB6ED96871
:10502000FB6E1A6840EA01031361FB6E9A68FB6E1F
:105030001B691A43FB6E5B691A43FB6EDB69134302
:105040003B67FB6E1B68DB6823F4164121F00C0103
:10505000FB6E1A683B6F0B43D360FB6E1B685B698A
:1050600023F44070FB6E9969FB6E1A6840EA0103F5
:105070005361FB6E1A68C54B9A4204D0FB6E1A68E6
:10508000C34B9A4203D1FFF77DFC786702E0FFF73C
:1050900065FC7867FB6EDB69B3F5004F40F0B680C6
:1050A0007B6F1C464FF0000522462B469118396451
:1050B0005B417B64D7E91023121945EB03034FF0E2
:1050C00000004FF00001D90041EA5271D0000246C1
:1050D0000B46111939666B417B66FB6E5B681A469D
:1050E0004FF000039118B9635B41FB63D7E90E23CE
:1050F000D7E91801FBF7CCF802460B46A54BA3FBFA
:1051000002235B091E017B6F1C464FF000052246FF
:105110002B46911839635B417B63D7E90C23121945
:1051200045EB03034FF000004FF00001D90041EAC6
:105130005271D00002460B461119B9656B41FB65EF
:10514000FB6E5B681A464FF000039118B9625B4131
:10515000FB62D7E90A23D7E91601FBF799F8024663
:105160000B468C4BA3FB02135B09642101FB03F389
:10517000D31ADB003233874AA2FB03235B095B00AF
:1051800003F4F8731E447B6F18464FF0000102468B
:105190000B4694183C625B417B62D7E908231218E6
:1051A00041EB03034FF000044FF00005DD0045EA3A
:1051B0005275D40022462B4614183C654B417B6542
:1051C000FB6E5B681A464FF000039118B9615B41B2
:1051D000FB61D7E90623D7E91401FBF759F802462A
:1051E0000B466C4BA3FB02135B09642101FB03F329
:1051F000D31ADB003233674AA2FB03235B0903F0B7
:105200000702FB6E1B6832449A60B9E07B6F1C4654
:105210004FF0000522462B46911839615B417B61B6
:10522000D7E90423121945EB03034FF000004FF0B8
:105230000001D90041EA5271D00002460B4612EB40
:10524000040843EB0509FB6E5B6818464FF000014C
:105250004FF000024FF000038B0043EA907382008E
:1052600040464946FBF714F802460B46494BA3FB60
:1052700002235B091E017B6F18464FF000010246B6
:105280000B469418BC605B41FB60D7E902231218FF
:1052900041EB03034FF000044FF00005DD0045EA49
:1052A0005275D40022462B461418BC644B41FB6453
:1052B000FB6E5B6818464FF000014FF000024FF0A4
:1052C00000038B0043EA90738200D7E91201FAF7DA
:1052D000DFFF02460B462F4BA3FB02135B09642141
:1052E00001FB03F3D31A1B0132332A4AA2FB032327
:1052F0005B0903F0F0031E447B6F18464FF000017A
:1053000002460B4694183C605B417B60D7E9002362
:10531000121841EB03034FF000044FF00005DD00CD
:1053200045EA5275D40022462B4612EB000A43EBA5
:10533000010BFB6E5B6818464FF000014FF0000256
:105340004FF000038B0043EA9073820050465946A9
:10535000FAF79EFF02460B460E4BA3FB02135B09B6
:10536000642101FB03F3D31A1B013233094AA2FB68
:1053700003235B0903F00F02FB6E1B6832449A6043
:1053800000BF7C37BD46BDE8F08F00BF0010014074
:10539000001401401F85EB5184B080B584B000AF8C
:1053A000786007F11C0080E80E003B6B012B22D1D6
:1053B0007B689B6B23F480327B689A637B68DB6835
:1053C00023F4840323F040037A68D3607B68DB68AE
:1053D00023F440127B68DA60FB6C012B05D17B68FB
:1053E000DB6843F480127B68DA60786800F0A0F92B
:1053F0000346FB731AE07B68DB6843F040027B687E
:10540000DA60786800F094F90346FB733B6C002B7C
:1054100006D17B689B6B43F480327B689A6305E01E
:105420007B689B6B23F480327B689A63BB6A012B99
:105430000BD17B689B6843F006027B689A607B68AF
:105440009B6843F020027B689A60FB7B184610370C
:10545000BD46BDE8804004B0704780B483B000AF63
:1054600078607B689B6843F001027B689A60002348
:1054700018460C37BD465DF8047B704780B483B096
:1054800000AF78607B689B6823F001027B689A60BC
:10549000002318460C37BD465DF8047B704780B585
:1054A00084B000AF78600B46FB700023FB607B6824
:1054B000DB6823F0C0427B68DA60FB78012B15D1F2
:1054C0007B68DB6843F000527B68DA600120FBF701
:1054D00017FCFB680133FB60786800F01AF903469B
:1054E000012B1ED0FB68312BF0D91AE0FB78002B82
:1054F00015D17B68DB6843F080427B68DA6001206D
:10550000FBF7FEFBFB680133FB60786800F001F9F4
:105510000346002B05D0FB68312BF0D901E00123B5
:1055200005E0FB68322B01D1012300E0002318467F
:105530001037BD4680BD000080B485B000AF7860F4
:1055400039600023FB603B689B0143F020027B68CD
:105550001A61FB680133FB60084A934201D90323B7
:1055600006E07B681B6903F02003202BF1D00023A9
:1055700018461437BD465DF8047B7047400D0300A4
:1055800080B485B000AF78600023FB607B68102298
:105590001A61FB680133FB60084A934201D9032377
:1055A00006E07B681B6903F01003102BF1D0002389
:1055B00018461437BD465DF8047B7047400D030064
:1055C00080B489B000AFF860B96011461A460B4646
:1055D000FB711346BB80FB687B61BB68FB6197F87E
:1055E0002830002B23D1BB8803339B083B61002369
:1055F000BB6118E0FB791A037B69134403F5805300
:105600001A46FB691B681360FB690133FB61FB6988
:105610000133FB61FB690133FB61FB690133FB6112
:10562000BB690133BB61BA693B699A42E2D300238B
:1056300018462437BD465DF8047B704780B48BB0B4
:1056400000AFF860B9601346FB80FB68BB61BB68C4
:105650007B62FB889B089BB27B61FB8803F00303A2
:10566000FB8300233B6214E0BB6903F580531A6897
:105670007B6A1A607B6A01337B627B6A01337B62DF
:105680007B6A01337B627B6A01337B623B6A013355
:105690003B623A6A7B699A42E6D3FB8B002B1ED0B1
:1056A00000233B62BB6903F580531A4607F11003E0
:1056B00012681A603A693B6ADBB2DB0022FA03F334
:1056C000DAB27B6A1A703B6A01333B627B6A013350
:1056D0007B62FB8B013BFB83FB8B002BEAD17B6A5C
:1056E00018462C37BD465DF8047B704780B485B002
:1056F00000AF78607B685B69FB607B689B69FA68D8
:105700001340FB60FB6818461437BD465DF8047B08
:10571000704780B483B000AF78607B685B6903F04A
:10572000010318460C37BD465DF8047B7047000046
:1057300080B485B000AF78600023FB60FB68013364
:10574000FB60134A934201D903231AE07B681B696B
:10575000002BF3DA0023FB607B681B6943F0010236
:105760007B681A61FB680133FB60094A934201D9E7
:10577000032306E07B681B6903F00103012BF1D0D2
:10578000002318461437BD465DF8047B704700BF00
:10579000400D030084B080B584B000AF786007F19D
:1057A0001C0080E80E007B68BB60BB6803F560638B
:1057B0001A46002313607B689B6B43F400127B68DE
:1057C0009A637B689B6B23F400227B689A637B68F7
:1057D0009B6B23F480227B689A637B68DB6B03F40A
:1057E0008073002B18D07B6A012B0AD1BB6803F5AC
:1057F00080631B68BA6802F5806243F0040313609B
:1058000014E0BB6803F580631B68BA6802F5806228
:1058100023F00403136009E0BB6803F580631B6891
:10582000BA6802F5806223F00403136010217868DF
:10583000FFF782FE7868FFF7A3FE0023FB6015E008
:10584000FB685A01BB68134403F5A0631A464FF086
:10585000FF339360FB685A01BB68134403F5A063F0
:105860001A460023D360FB680133FB603B6AFA6889
:105870009A42E5D37B6800229A617B684FF0FF3241
:105880005A617B68DB6B03F48073002B0BD07B6861
:105890004FF400725A627B68134A9A627B68134A1B
:1058A000C3F8002109E07B6880225A627B68104AB5
:1058B0009A627B680F4AC3F80021BB6A002B05D1AE
:1058C0007B689B6943F010027B689A617B689A69E8
:1058D000094B13437A689361002318461037BD467D
:1058E000BDE8804004B07047000200010003E00002
:1058F00080006000E0004000080020A380B485B074
:1059000000AF78600B46FB707B68FB60FB6803F5BB
:1059100080631B68FA6802F5806223F0030313605A
:10592000FB6803F580631A68FB7803F00303F968EA
:1059300001F5806113430B60FB78012B07D1FB68F5
:1059400003F580631A464BF68033536009E0FB7819
:10595000022B06D1FB6803F580631A4641F270738F
:105960005360002318461437BD465DF8047B70472A
:1059700080B584B000AF78607B68FB600023BB60BB
:10598000FB6803F588631B68BB60BB6823F02E03CC
:10599000BB60BB68FA6802F5886243F480731360E9
:1059A0006420FBF7ADF9BB68FA6802F5886223F45E
:1059B000807313600A20FBF7A3F900231846103701
:1059C000BD4680BD80B485B000AF78600B46FB70EB
:1059D0007B68FB600023BB60FB6803F588631B6882
:1059E000BB60BB6823F02E03BB60BB6803F480532D
:1059F000002B09D1FB78012B06D1BB68FA6802F5B0
:105A0000886243F480531360BB6803F48053B3F59A
:105A1000805F09D1FB78002B06D1BB68FA6802F5DC
:105A2000886223F480531360002318461437BD4660
:105A30005DF8047B704780B485B000AF78607B6808
:105A4000FB600023BB60FB6803F588631B68BB60D9
:105A5000BB685B0C03F0030318461437BD465DF8C2
:105A6000047B704780B485B000AF78607B68FB60D2
:105A7000FB6803F580639B689BB218461437BD46EC
:105A80005DF8047B7047000080B588B000AF786097
:105A9000084611461A460346FB700B46BB70134678
:105AA0007B700023FB777B683B61FB785A013B6985
:105AB000134403F5A0631A464FF0FF33936097F841
:105AC0002C30032B7ED801A252F823F0DD5A0008B7
:105AD000875B0008DD5A0008495B0008FB785A0123
